:100000000C945D000C9485000C9485000C94850084
:100010000C9485000C9485000C9485000C9485004C
:100020000C9485000C9485000C9485000C9485003C
:100030000C9485000C9485000C9485000C9485002C
:100040000C94AF060C9485000C947D060C94570616
:100050000C9485000C9485000C9485000C9485000C
:100060000C9485000C94850000000008000201003B
:100070000003040700000000000000000000000072
:10008000250028002B0000000000240027002A0083
:10009000040404040404040402020202020203032E
:1000A0000303030301020408102040800102040836
:1000B0001020010204081020F90611241FBECFEF02
:1000C000D8E0DEBFCDBF11E0A0E0B1E0E8E8FBE1A1
:1000D00002C005900D92A836B107D9F722E0A8E634
:1000E000B1E001C01D92A635B207E1F710E0CDE501
:1000F000D0E004C02197FE010E94750CCC35D107D9
:10010000C9F70E9410080C94C20D0C94000090E0F6
:10011000FC01EC55FF4F249180579F4FFC018491C7
:10012000882399F090E0880F991FFC01EA57FF4F50
:10013000A591B491FC01E458FF4F859194918FB73C
:10014000F894EC91E22BEC938FBF0895AF92BF929D
:10015000CF92DF92EF92FF920F931F93CF93DF9393
:100160006C017B018B01040F151FEB015E01AE18C2
:10017000BF08C017D10759F06991D601ED91FC91E4
:100180000190F081E02DC6010995892B79F7C50111
:10019000DF91CF911F910F91FF90EF90DF90CF9063
:1001A000BF90AF900895FC01538D448D252F30E012
:1001B000842F90E0821B930B541710F0CF96089574
:1001C00001970895FC01918D828D981761F0A28DA1
:1001D000AE0FBF2FB11D5D968C91928D9F5F9F7367
:1001E000928F90E008958FEF9FEF0895FC01918D1D
:1001F000828D981731F0828DE80FF11D858D90E08A
:1002000008958FEF9FEF0895FC01918D228D892F26
:1002100090E0805C9F4F821B91098F73992708950E
:1002200081E791E00E94040121E0892B09F420E09C
:10023000822F089580E090E0892B29F00E94100120
:1002400081110C9400000895FC01A48DA80FB92F12
:10025000B11DA35ABF4F2C91848D90E001968F73EE
:100260009927848FA689B7892C93A089B1898C910D
:10027000837080648C93938D848D981306C002885C
:10028000F389E02D80818F7D80830895EF92FF9226
:100290000F931F93CF93DF93EC0181E0888F9B8DA9
:1002A0008C8D98131AC0E889F989808185FF15C063
:1002B0009FB7F894EE89FF896083E889F989808186
:1002C0008370806480839FBF81E090E0DF91CF9155
:1002D0001F910F91FF90EF900895F62E0B8D10E077
:1002E0000F5F1F4F0F731127E02E8C8D8E110CC0E6
:1002F0000FB607FCFACFE889F989808185FFF5CF31
:10030000CE010E942401F1CFEB8DEC0FFD2FF11DEA
:10031000E35AFF4FF0829FB7F8940B8FEA89FB896D
:1003200080818062CFCFCF93DF93EC01888D8823CB
:10033000B9F0AA89BB89E889F9898C9185FD03C048
:10034000808186FD0DC00FB607FCF7CF8C9185FF2D
:10035000F2CF808185FFEDCFCE010E942401E9CF4D
:10036000DF91CF91089590E0FC01E859FF4F24916F
:10037000FC01EC55FF4F3491FC01E057FF4FE49135
:10038000EE23C9F0222339F0233001F1A8F4213003
:1003900019F1223029F1F0E0EE0FFF1FE458FF4F72
:1003A000A591B4918FB7F894EC91611126C0309566
:1003B0003E233C938FBF08952730A9F02830C9F021
:1003C000243049F7809180008F7D03C080918000A8
:1003D0008F7780938000DFCF84B58F7784BDDBCFAC
:1003E00084B58F7DFBCF8091B0008F778093B00074
:1003F000D2CF8091B0008F7DF9CF3E2BDACF3FB7BF
:10040000F89480916D0190916E01A0916F01B0916F
:10041000700126B5A89B05C02F3F19F00196A11DBC
:10042000B11D3FBFBA2FA92F982F8827BC01CD013E
:10043000620F711D811D911D42E0660F771F881F9D
:10044000991F4A95D1F70895CF93DF93FC01278137
:10045000222329F1EC0180850E94870089850E9472
:1004600087008F81843011F0883099F48A850E944A
:1004700087008B850E9487008FA58F3F81F00E94A7
:1004800087006EA581E068278FA5DF91CF910C943E
:10049000B301833011F0863079F78A85EBCFDF9195
:1004A000CF910895CF93DF93FC0127812223A1F000
:1004B000EC010190F081E02D0284F385E02D60E0F5
:1004C00009958FA58F3F41F00E9487006EA58FA5EB
:1004D000DF91CF910C94B301DF91CF910895DC01AE
:1004E000ED91FC9122853385477055276627772744
:1004F0004150510961097109473051056105710584
:1005000060F4FA01EA57FD4F0C94750C90029202C8
:100510009402960298029A029C0261E0F901099401
:1005200065E0FCCF64E0FACF66E0F8CF62E0F6CF9A
:100530006AE0F4CF68E0F2CF69E0F0CFCF93DF93C9
:10054000EC01CB01BA0126E030E040E050E00E942F
:10055000560C623071058105910589F16CF46115C5
:10056000710581059105D1F0613071058105910515
:10057000F9F0DF91CF9108956430710581059105FF
:1005800061F124F1653071058105910591F7E881EC
:10059000F9810284F385E02D66E006C0E881F981E7
:1005A0000284F385E02D64E0CE01DF91CF910994C0
:1005B000E881F9810284F385E02D65E0F5CFE881DB
:1005C000F9810284F385E02D61E0EECFE881F981C5
:1005D0000284F385E02D63E0E7CFE881F9810284AE
:1005E000F385E02D62E0E0CFDC01ED91FC91028427
:1005F000F385E02D43705527662777274230510554
:100600006105710571F0433051056105710559F0BF
:10061000413051056105710511F065E0099466E00E
:10062000FDCF6AE0FBCF69E0F9CFCF93DF93EC0118
:10063000CB01BA0123E030E040E050E00E94560CCC
:10064000613071058105910599F062307105810570
:100650009105A9F0672B682B692BC1F4E881F9811A
:100660000284F385E02D64E0CE01DF91CF910994FF
:10067000E881F9810284F385E02D61E0F5CFE8811E
:10068000F9810284F385E02D62E0EECFDF91CF9116
:100690000895DC01ED91FC910284F385E02D437017
:1006A000552766277727423051056105710571F09E
:1006B000433051056105710559F04130510561051F
:1006C000710511F062E0099463E0FDCF61E0FBCFBA
:1006D00060E0F9CFCF93DF93EC01E881F9810284E8
:1006E000F385E02D8A8160E0811162E0CE010995F9
:1006F000E881F9810284F385E02D8A8161E081112E
:1007000063E0CE0109958CA59DA58230910538F056
:10071000880F991F880F991F05970197F1F7E881B6
:10072000F9810284F385E02D8A8160E0811162E025
:10073000CE01DF91CF910994CF93DF93EC0120E0BC
:1007400030E0A901688D798D8A8D9B8D0E94890B7F
:1007500018162CF4E8A9F9A9DF91CF910994EAA918
:10076000FBA9FACFCF92DF92EF92FF920F931F93E4
:10077000CF93DF93DC011796CC91C43039F0C830A9
:1007800059F1C33019F0C63049F1C2E08C01085F5D
:100790001F4FF12CE12CC62ED12CD1E0F801648141
:1007A000C6010E2C02C0959587950A94E2F780FD4C
:1007B0006D270F5F1F4F80810E94B301BFEFEB1ABF
:1007C000FB0AEC1658F3DF91CF911F910F91FF9028
:1007D000EF90DF90CF900895C4E0D8CFC3E0D6CF9C
:1007E000DC011796EC911797E93008F038C0F0E07B
:1007F000E450FC4F0C94750C05040B041104170411
:100800001D042F0423042F042904ED91FC91068478
:10081000F785E02D0994ED91FC910088F189E02D98
:10082000F9CFED91FC910288F389E02DF3CFED91A2
:10083000FC910488F589E02DEDCFED91FC910688BF
:10084000F789E02DE7CFED91FC91008CF18DE02D43
:10085000E1CFED91FC91028CF38DE02DDBCF08957B
:100860004F925F926F927F928F929F92AF92BF92C0
:10087000CF92DF92EF92FF920F931F93CF93DF936C
:10088000EC01CC88DD88EE88FF8888899989AA895F
:10089000BB89C81AD90AEA0AFB0A688D798D8A8D44
:1008A0009B8D9B01AC010E948E0B4B015C0168A1EA
:1008B00079A18AA19BA19B01AC010E94BE099B0169
:1008C000AC01C501B4010E942F0A0E94A10AC11403
:1008D000D104E104F10409F0B6C06230710581056C
:1008E00091050CF0D0C01B821C821D821E82188EC6
:1008F000198E1A8E1B8E1CAA1DAA1EAA1FAAC12CF5
:10090000D12C7601C701B601DF91CF911F910F91D4
:10091000FF90EF90DF90CF90BF90AF909F908F901F
:100920007F906F905F904F900895101611061206F9
:100930001306B4F46C157D058E059F051CF42A8101
:100940002111A1C09B01AC0188279927DC01821BE2
:10095000930BA40BB50B8CAB9DABAEABBFAB93C0F5
:10096000011511052105310509F48DC06C157D05B2
:100970008E059F050CF087C08A81882309F483C007
:1009800030952095109501951F4F2F4F3F4F0CAB81
:100990001DAB2EAB3FAB77C001151105210531050D
:1009A00009F471C08824992454018C189D08AE085C
:1009B000BF08681579058A059B050CF064C08A811B
:1009C000811161C0DDCFCCACDDACEEACFFACA701DA
:1009D0009601C701B6010E94BE092B013C01C50169
:1009E000B4010E94D90A20E030E040E850E40E94BF
:1009F0008E0B20E030E040E85FE30E94BE099B01DF
:100A0000AC01C301B2010E942F0A9B01AC01C701D6
:100A1000B6010E94BD093B016C01FE01E05CFF4F85
:100A2000E080F180028113819701A8010E94890B67
:100A3000181614F473018601C701D8018CAF9DAF5D
:100A4000AEAFBFAF3AC00CA91DA92EA93FA91C1477
:100A50001D041E041F040CF468CF101611061206A4
:100A600013060CF099CF0027112798010C191D09C6
:100A70002E093F0960177107820793070CF062CFB8
:100A80002A8121115FCF8CA89DA8AEA8BFA8811490
:100A90009104A104B10409F096CF88AD99ADAAAD37
:100AA000BBAD8CAF9DAFAEAFBFAF81E01C141D04DA
:100AB0001E041F040CF080E08A833FEF831A930A20
:100AC000A30AB30A8CAA9DAAAEAABFAA8CAC9DACFD
:100AD000AEACBFACC501B4010E94A80A6B017C0199
:100AE000CB82DC82ED82FE82A501940160E074E29B
:100AF00084E799E40E942F0A688F798F8A8F9B8FF1
:100B00002A812111FFCE9058688F798F8A8F9B8F11
:100B1000F9CECF92DF92EF92FF92CF93DF93CEE0A8
:100B2000D2E0688D798D8A8D9B8D9B01AC010E94EE
:100B30008E0B6B017C0168A179A18AA19BA19B010D
:100B4000AC010E94BE099B01AC01C701B6010E9425
:100B50002F0A0E94A10A6CAB7DAB8EAB9FABCE017E
:100B6000DF91CF91FF90EF90DF90CF900C94300405
:100B700008954F925F926F927F928F929F92AF9261
:100B8000BF92CF92DF92EF92FF926B017C0120E047
:100B900030E0A9010E942A0A87FF04C0F7FAF09406
:100BA000F7F8F09480902E0290902F02A0903002DF
:100BB000B0903102A7019601C501B4010E942A0A32
:100BC000882309F458C060914202709143028091D9
:100BD0004402909145020E94D90A2B013C01A701D1
:100BE0009601C501B4010E942F0A9B01AC01C3010B
:100BF000B2010E948E0B0E94A10A60934202709380
:100C000043028093440290934502A701960160E05D
:100C100070E080E090E40E942F0A0E94010C26E51B
:100C20003EE04DE25FE30E948E0B20E034E244E7B9
:100C300059E40E948E0B60934602709347028093A2
:100C4000480290934902C0922E02D0922F02E09265
:100C50003002F09231028EE092E0FF90EF90DF9050
:100C6000CF90BF90AF909F908F907F906F905F904C
:100C70004F900C943004FF90EF90DF90CF90BF9096
:100C8000AF909F908F907F906F905F904F9008955E
:100C9000FC0101900020E9F73197AF01481B590B87
:100CA000BC0181E791E00C94A6000C94390D1F92D1
:100CB0000F920FB60F9211242F933F934F935F9390
:100CC0006F937F938F939F93AF93BF93EF93FF9314
:100CD00081E791E00E942401FF91EF91BF91AF91D4
:100CE0009F918F917F916F915F914F913F912F9144
:100CF0000F900FBE0F901F9018951F920F920FB676
:100D00000F9211242F938F939F93EF93FF93E09172
:100D10008101F09182018081E0918701F091880149
:100D200082FD1BC0908180918A018F5F8F7320911B
:100D30008B01821741F0E0918A01F0E0EF58FE4FFD
:100D4000958F80938A01FF91EF919F918F912F91C1
:100D50000F900FBE0F901F9018958081F4CF1F92B7
:100D60000F920FB60F9211242F933F938F939F935F
:100D7000AF93BF938091690190916A01A0916B013B
:100D8000B0916C013091680123E0230F2D3758F5A5
:100D90000196A11DB11D2093680180936901909374
:100DA0006A01A0936B01B0936C0180916D019091E9
:100DB0006E01A0916F01B09170010196A11DB11D4E
:100DC00080936D0190936E01A0936F01B0937001B9
:100DD000BF91AF919F918F913F912F910F900FBE37
:100DE0000F901F90189526E8230F0296A11DB11DA4
:100DF000D2CFCF92DF92EF92FF92109274011092B5
:100E0000730188EE93E0A0E0B0E0809375019093C9
:100E10007601A0937701B09378018AE091E09093F6
:100E200072018093710185EC90E090937E01809334
:100E30007D0184EC90E09093800180937F0180ECB1
:100E400090E0909382018093810181EC90E09093F7
:100E500084018093830182EC90E0909386018093DB
:100E6000850186EC90E09093880180938701109231
:100E70008A0110928B0110928C0110928D018CE1ED
:100E800091E090930F0280930E0281E0809315020F
:100E900010921E0210921F02109220021092210244
:100EA0001092220210922302109224021092250224
:100EB0001092260210922702109228021092290204
:100EC00010922A0210922B0210922C0210922D02E4
:100ED00010922E0210922F021092300210923102C4
:100EE000C12CD12C80E8E82E8FE3F82EC09232027C
:100EF000D0923302E0923402F09235021092110245
:100F000010921202109213021092140281E090E0EB
:100F100090933B0280933A028FEF80933D021092B0
:100F2000360210923702109238021092390282E093
:100F30008093160285E08093170294E09093180244
:100F40008093190210923C021092420210924302C6
:100F500010924402109245021092460210924702EB
:100F6000109248021092490210924A0210924B02CB
:100F700010924C0210924D02C0924E02D0924F023B
:100F8000E0925002F09251021092100210921A0256
:100F900010921B0210921C0210921D028EE092E031
:100FA0000E942402C701B6010E94B905A70196015B
:100FB00060912A0270912B0280912C0290912D0257
:100FC0000E942A0A882339F1C0922A02D0922B0269
:100FD000E0922C02F0922D0280E094E2A4E7B9E4C2
:100FE00080934E0290934F02A0935002B09351020F
:100FF0008091420290914302A0914402B091450237
:10100000181619061A061B0634F4FF90EF90DF90AD
:10101000CF900C948905FF90EF90DF90CF900895CA
:10102000CF93DF93CDB7DEB7A1970FB6F894DEBFAD
:101030000FBECDBF789484B5826084BD84B58160D5
:1010400084BD85B5826085BD85B5816085BD809193
:101050006E00816080936E0010928100809181000B
:101060008260809381008091810081608093810003
:10107000809180008160809380008091B1008460C5
:101080008093B1008091B00081608093B000809126
:101090007A00846080937A0080917A0082608093E5
:1010A0007A0080917A00816080937A0080917A0042
:1010B000806880937A001092C10020E030E048EC14
:1010C00052E460912A0270912B0280912C0290913F
:1010D0002D020E942A0A882339F180E090E0A8ECD2
:1010E000B2E480932A0290932B02A0932C02B09337
:1010F0002D0280E090E4ACE1B6E480934E02909340
:101100004F02A0935002B0935102809142029091FD
:101110004302A0914402B0914502181619061A061E
:101120001B0614F40E94890560E070E08AEF93E4E6
:101130000E94B905E0918101F091820182E08083F3
:10114000E0917D01F0917E011082E0917F01F091AC
:1011500080018FEC808310928901E0918501F091EC
:10116000860186E08083E0918301F0918401808193
:1011700080618083E0918301F091840180818860A7
:101180008083E0918301F091840180818068808375
:10119000E0918301F091840180818F7D808388E3D9
:1011A00091E00E94480682E591E00E94480699E39A
:1011B000792E21E3622E00E010E037EC232E312C53
:1011C000412C512C85E591E00E94480619A278A295
:1011D0007F8E6E8ECE014E960E94480682E591E08B
:1011E0000E9448068091220290912302A09124023D
:1011F000B0912502873C9105A105B10561F02092CF
:1012000022023092230240922402509225028EE064
:1012100092E00E94300420E030E0A90160912602B3
:101220007091270280912802909129020E942A0A37
:10123000811146C040912202509123026091240204
:101240007091250280911E0290911F02A0912002B0
:10125000B0912102481759076A077B0789F50E9458
:10126000FF014B015C0188EEC82E83E0D82EE12CF3
:10127000F12C0E94FF01681979098A099B09683ECF
:10128000734081059105A8F321E0C21AD108E10855
:10129000F10888EE880E83E0981EA11CB11CC114D1
:1012A000D104E104F10429F70115110509F48ACFED
:1012B0000E941001882309F485CF0E94000082CF8C
:1012C0008091110290911202A0911302B091140228
:1012D000892B8A2B8B2B09F49ECF0E94FF016B0177
:1012E0007C018091360290913702A0913802B09132
:1012F0003902B701A601481B590B6A0B7B0B809181
:10130000110290911202A0911302B0911402481799
:1013100059076A077B0708F47ECF2091100280915D
:101320001E0290911F02A0912002B091210222235F
:1013300001F10196A11DB11D80931E0290931F0221
:10134000A0932002B093210240911E0250911F02EF
:1013500060912002709121028EE092E00E94F003E1
:10136000C0923602D0923702E0923802F0923902EF
:101370004ECF0197A109B109DFCF5058BB27AA274B
:101380000E94D5090C944F0B0E94410B38F00E942B
:10139000480B20F039F49F3F19F426F40C943E0BCF
:1013A0000EF4E095E7FB0C94380BE92F0E94600BDC
:1013B00058F3BA17620773078407950720F079F48A
:1013C000A6F50C94820B0EF4E0950B2EBA2FA02DEF
:1013D0000B01B90190010C01CA01A0011124FF27E2
:1013E000591B99F0593F50F4503E68F11A16F040DD
:1013F000A22F232F342F4427585FF3CF46953795DC
:101400002795A795F0405395C9F77EF41F16BA0BA0
:10141000620B730B840BBAF09150A1F0FF0FBB1F4E
:10142000661F771F881FC2F70EC0BA0F621F731F97
:10143000841F48F4879577956795B795F7959E3FF4
:1014400008F0B0CF9395880F08F09927EE0F979585
:10145000879508950E94140B08F481E008950E9476
:10146000430A0C944F0B0E94480B58F00E94410B0A
:1014700040F029F45F3F29F00C94380B51110C9483
:10148000830B0C943E0B0E94600B68F39923B1F31D
:10149000552391F3951B550BBB27AA27621773079A
:1014A000840738F09F5F5F4F220F331F441FAA1F2E
:1014B000A9F335D00E2E3AF0E0E832D091505040EA
:1014C000E695001CCAF72BD0FE2F29D0660F771F98
:1014D000881FBB1F261737074807AB07B0E809F07E
:1014E000BB0B802DBF01FF2793585F4F3AF09E3F03
:1014F000510578F00C94380B0C94830B5F3FE4F3A8
:10150000983ED4F3869577956795B795F7959F5F45
:10151000C9F7880F911D9695879597F90895E1E091
:10152000660F771F881FBB1F621773078407BA07F0
:1015300020F0621B730B840BBA0BEE1F88F7E0954B
:1015400008950E94A80A6894B1110C94830B089521
:101550000E94680B88F09F5798F0B92F9927B751D0
:10156000B0F0E1F0660F771F881F991F1AF0BA9547
:10157000C9F714C0B13091F00E94820BB1E0089518
:101580000C94820B672F782F8827B85F39F0B93F0A
:10159000CCF3869577956795B395D9F73EF49095FA
:1015A0008095709561957F4F8F4F9F4F0895E89478
:1015B00009C097FB3EF490958095709561957F4F9B
:1015C0008F4F9F4F9923A9F0F92F96E9BB27939549
:1015D000F695879577956795B795F111F8CFFAF459
:1015E000BB0F11F460FF1BC06F5F7F4F8F4F9F4F8A
:1015F00016C0882311F096E911C0772321F09EE8E8
:10160000872F762F05C0662371F096E8862F70E04D
:1016100060E02AF09A95660F771F881FDAF7880F27
:101620009695879597F90895990F0008550FAA0B7D
:10163000E0E8FEEF16161706E807F907C0F01216E5
:101640001306E407F50798F0621B730B840B950BE8
:1016500039F40A2661F0232B242B252B21F408953D
:101660000A2609F4A140A6958FEF811D811D0895DA
:1016700097F99F6780E870E060E008959FEF80EC45
:10168000089500240A9416161706180609060895E8
:1016900000240A9412161306140605060895092E4E
:1016A0000394000C11F4882352F0BB0F40F4BF2BBD
:1016B00011F460FF04C06F5F7F4F8F4F9F4F0895FD
:1016C00057FD9058440F551F59F05F3F71F04795F3
:1016D000880F97FB991F61F09F3F79F087950895D8
:1016E000121613061406551FF2CF4695F1DF08C0F7
:1016F000161617061806991FF1CF86957105610514
:1017000008940895E894BB2766277727CB0197F9BB
:1017100008950E94140B08F48FEF08950E94A10B06
:101720000C944F0B0E94410B38F00E94480B20F0A4
:10173000952311F00C94380B0C943E0B11240C944F
:10174000830B0E94600B70F3959FC1F3950F50E0DF
:10175000551F629FF001729FBB27F00DB11D639F63
:10176000AA27F00DB11DAA1F649F6627B00DA11D09
:10177000661F829F2227B00DA11D621F739FB00DAF
:10178000A11D621F839FA00D611D221F749F33271F
:10179000A00D611D231F849F600D211D822F762FB8
:1017A0006A2F11249F5750409AF0F1F088234AF095
:1017B000EE0FFF1FBB1F661F771F881F9150504001
:1017C000A9F79E3F510580F00C94380B0C94830BC5
:1017D0005F3FE4F3983ED4F3869577956795B79588
:1017E000F795E7959F5FC1F7FE2B880F911D9695A2
:1017F000879597F9089519F416F40C943E0B0C9400
:10180000410C0E94680BB8F39923C9F3B6F39F57B4
:10181000550B87FF0E944F0C0024A0E640EA900180
:1018200080585695979528F4805C660F771F881F1F
:1018300020F026173707480730F4621B730B840B20
:10184000202931294A2BA695179407942025312564
:101850004A2758F7660F771F881F20F0261737078B
:10186000480730F4620B730B840B200D311D411DB2
:10187000A09581F7B901842F9158880F9695879587
:1018800008959F3F31F0915020F4879577956795A3
:10189000B795880F911D9695879597F90895915062
:1018A0005040660F771F881FD2F70895052E97FBCB
:1018B0001EF400940E946D0C57FD07D00E947B0C13
:1018C00007FC03D04EF40C946D0C50954095309568
:1018D00021953F4F4F4F5F4F08959095809570959C
:1018E00061957F4F8F4F9F4F0895EE0FFF1F05901B
:1018F000F491E02D0994A1E21A2EAA1BBB1BFD0155
:101900000DC0AA1FBB1FEE1FFF1FA217B307E407DE
:10191000F50720F0A21BB30BE40BF50B661F771F36
:10192000881F991F1A9469F7609570958095909516
:101930009B01AC01BD01CF0108950F931F93CF937D
:10194000DF938230910510F482E090E0E091540240
:10195000F091550230E020E0B0E0A0E0309799F43B
:101960002115310509F44AC0281B390B24303105F3
:10197000D8F58A819B816115710589F1FB019383FB
:101980008283FE0111C04081518102811381481779
:101990005907E0F04817590799F4109761F012962B
:1019A0000C93129713961C933296CF01DF91CF912F
:1019B0001F910F9108950093540210935502F4CF94
:1019C0002115310551F04217530738F0A901DB0109
:1019D0009A01BD01DF01F801C1CFEF01F9CF90936A
:1019E000550280935402CDCFFE01E20FF31F819385
:1019F00091932250310939832883D7CF2091520205
:101A000030915302232B41F42091020130910301C4
:101A10003093530220935202209100013091010132
:101A20002115310541F42DB73EB740910401509185
:101A30000501241B350BE0915202F0915302E2178D
:101A4000F307A0F42E1B3F0B2817390778F0AC01E1
:101A50004E5F5F4F2417350748F04E0F5F1F5093BE
:101A6000530240935202819391939FCFF0E0E0E0C4
:101A70009CCFCF93DF930097E9F0FC01329713825C
:101A80001282A0915402B0915502ED0130E020E0A5
:101A90001097A1F420813181820F931F209152026F
:101AA000309153022817390709F061C0F0935302AF
:101AB000E0935202DF91CF910895EA01CE17DF073C
:101AC000E8F54A815B819E0141155105B1F7E901B5
:101AD000FB83EA8349915991C40FD51FEC17FD0789
:101AE00061F4808191810296840F951FE9019983A9
:101AF0008883828193819B838A83F0E0E0E0129661
:101B00008D919C9113970097B9F52D913C91119768
:101B1000CD010296820F931F209152023091530201
:101B20002817390739F6309751F51092550210925F
:101B30005402B0935302A0935202BCCFD383C2830A
:101B400040815181840F951FC817D90761F44E5FFA
:101B50005F4F88819981480F591F518340838A8143
:101B60009B81938382832115310509F0B0CFF093D7
:101B70005502E09354029ECFFD01DC01C0CF1382D9
:081B80001282D7CFF894FFCFC9
:101B8800000056028000000000004601A600D300B5
:101B980093010401E200F600000000005202240252
:101BA800B80555063004B203F0039C036A034903E1
:101BB8001503F4029E026F025374617274696E67B2
:101BC800206D6F746F7220636F6E74726F6C2E2E3F
:101BD8002E000D0A0043616C63756C6174656420A6
:081BE80073746570733A20006C
:00000001FF
